{
  "contractName": "Experiments",
  "abi": [
    {
      "constant": true,
      "inputs": [
        {
          "name": "",
          "type": "address"
        }
      ],
      "name": "experiment",
      "outputs": [
        {
          "name": "experimenter",
          "type": "address"
        },
        {
          "name": "nullHypothesis",
          "type": "string"
        }
      ],
      "payable": false,
      "stateMutability": "view",
      "type": "function"
    },
    {
      "payable": false,
      "stateMutability": "nonpayable",
      "type": "fallback"
    },
    {
      "anonymous": false,
      "inputs": [
        {
          "indexed": true,
          "name": "from",
          "type": "address"
        },
        {
          "indexed": true,
          "name": "nullHypothesis",
          "type": "string"
        }
      ],
      "name": "createExperimentEvent",
      "type": "event"
    },
    {
      "constant": false,
      "inputs": [
        {
          "name": "_nullHypothesis",
          "type": "string"
        }
      ],
      "name": "createExperiment",
      "outputs": [
        {
          "name": "success",
          "type": "bool"
        }
      ],
      "payable": false,
      "stateMutability": "nonpayable",
      "type": "function"
    }
  ],
  "bytecode": "0x608060405234801561001057600080fd5b50610459806100206000396000f30060806040526004361061004c576000357c0100000000000000000000000000000000000000000000000000000000900463ffffffff16806308f7eb371461005b578063a684a7881461014a575b34801561005857600080fd5b50005b34801561006757600080fd5b5061009c600480360381019080803573ffffffffffffffffffffffffffffffffffffffff1690602001909291905050506101cb565b604051808373ffffffffffffffffffffffffffffffffffffffff1673ffffffffffffffffffffffffffffffffffffffff16815260200180602001828103825283818151815260200191508051906020019080838360005b8381101561010e5780820151818401526020810190506100f3565b50505050905090810190601f16801561013b5780820380516001836020036101000a031916815260200191505b50935050505060405180910390f35b34801561015657600080fd5b506101b1600480360381019080803590602001908201803590602001908080601f01602080910402602001604051908101604052809392919081815260200183838082843782019150505050505091929192905050506102a7565b604051808215151515815260200191505060405180910390f35b60006020528060005260406000206000915090508060000160009054906101000a900473ffffffffffffffffffffffffffffffffffffffff1690806001018054600181600116156101000203166002900480601f01602080910402602001604051908101604052809291908181526020018280546001816001161561010002031660029004801561029d5780601f106102725761010080835404028352916020019161029d565b820191906000526020600020905b81548152906001019060200180831161028057829003601f168201915b5050505050905082565b6000336000803373ffffffffffffffffffffffffffffffffffffffff1673ffffffffffffffffffffffffffffffffffffffff16815260200190815260200160002060000160006101000a81548173ffffffffffffffffffffffffffffffffffffffff021916908373ffffffffffffffffffffffffffffffffffffffff160217905550816000803373ffffffffffffffffffffffffffffffffffffffff1673ffffffffffffffffffffffffffffffffffffffff168152602001908152602001600020600101908051906020019061037e929190610388565b5060019050919050565b828054600181600116156101000203166002900490600052602060002090601f016020900481019282601f106103c957805160ff19168380011785556103f7565b828001600101855582156103f7579182015b828111156103f65782518255916020019190600101906103db565b5b5090506104049190610408565b5090565b61042a91905b8082111561042657600081600090555060010161040e565b5090565b905600a165627a7a7230582024949f27675a01f22d793806b931bd2a3533b689ab257b6b714003cba3507c490029",
  "source": "pragma solidity ^0.4.23;\r\n\r\ncontract Experiments {\r\n\r\n    struct Experiment {\r\n        address experimenter;\r\n        string nullHypothesis;\r\n    }\r\n\r\n    mapping (address => Experiment) public experiment;\r\n\r\n    event createExperimentEvent(address indexed from, string indexed nullHypothesis);\r\n\r\n    function () public {}\r\n\r\n    function createExperiment(string _nullHypothesis) public returns (bool success) {\r\n        //require(!experiment[msg.sender].experimenter);\r\n\r\n        experiment[msg.sender].experimenter = msg.sender;\r\n        experiment[msg.sender].nullHypothesis = _nullHypothesis;\r\n\r\n        //emit createExperimentEvent(msg.sender, _nullHypothesis);\r\n\r\n        return true;\r\n    }\r\n}\r\n",
  "sourcePath": "C:\\xampp\\htdocs\\BLOCKCHAIN\\decentralized-neuoscience-research-smart-contracts\\contracts\\Experiments.sol",
  "compiler": {
    "name": "solc",
    "version": "0.4.24+commit.e67f0147.Emscripten.clang"
  },
  "schemaVersion": "2.0.1",
  "updatedAt": "2018-07-01T13:00:54.052Z"
}