{
  "contractName": "Experiments",
  "abi": [
    {
      "constant": true,
      "inputs": [
        {
          "name": "",
          "type": "address"
        }
      ],
      "name": "experiment",
      "outputs": [
        {
          "name": "experimenter",
          "type": "address"
        },
        {
          "name": "nullHypothesis",
          "type": "string"
        }
      ],
      "payable": false,
      "stateMutability": "view",
      "type": "function"
    },
    {
      "payable": false,
      "stateMutability": "nonpayable",
      "type": "fallback"
    },
    {
      "anonymous": false,
      "inputs": [
        {
          "indexed": true,
          "name": "from",
          "type": "address"
        },
        {
          "indexed": true,
          "name": "nullHypothesis",
          "type": "string"
        }
      ],
      "name": "createExperimentEvent",
      "type": "event"
    },
    {
      "constant": false,
      "inputs": [
        {
          "name": "_nullHypothesis",
          "type": "string"
        }
      ],
      "name": "createExperiment",
      "outputs": [],
      "payable": false,
      "stateMutability": "nonpayable",
      "type": "function"
    }
  ],
  "bytecode": "0x608060405234801561001057600080fd5b506104df806100206000396000f30060806040526004361061004c576000357c0100000000000000000000000000000000000000000000000000000000900463ffffffff16806308f7eb371461005b578063a684a7881461014a575b34801561005857600080fd5b50005b34801561006757600080fd5b5061009c600480360381019080803573ffffffffffffffffffffffffffffffffffffffff1690602001909291905050506101b3565b604051808373ffffffffffffffffffffffffffffffffffffffff1673ffffffffffffffffffffffffffffffffffffffff16815260200180602001828103825283818151815260200191508051906020019080838360005b8381101561010e5780820151818401526020810190506100f3565b50505050905090810190601f16801561013b5780820380516001836020036101000a031916815260200191505b50935050505060405180910390f35b34801561015657600080fd5b506101b1600480360381019080803590602001908201803590602001908080601f016020809104026020016040519081016040528093929190818152602001838380828437820191505050505050919291929050505061028f565b005b60006020528060005260406000206000915090508060000160009054906101000a900473ffffffffffffffffffffffffffffffffffffffff1690806001018054600181600116156101000203166002900480601f0160208091040260200160405190810160405280929190818152602001828054600181600116156101000203166002900480156102855780601f1061025a57610100808354040283529160200191610285565b820191906000526020600020905b81548152906001019060200180831161026857829003601f168201915b5050505050905082565b336000803373ffffffffffffffffffffffffffffffffffffffff1673ffffffffffffffffffffffffffffffffffffffff16815260200190815260200160002060000160006101000a81548173ffffffffffffffffffffffffffffffffffffffff021916908373ffffffffffffffffffffffffffffffffffffffff160217905550806000803373ffffffffffffffffffffffffffffffffffffffff1673ffffffffffffffffffffffffffffffffffffffff168152602001908152602001600020600101908051906020019061036492919061040e565b50806040518082805190602001908083835b60208310151561039b5780518252602082019150602081019050602083039250610376565b6001836020036101000a03801982511681845116808217855250505050505090500191505060405180910390203373ffffffffffffffffffffffffffffffffffffffff167fc3b4d64232d725324afdb9c19e59f0303325f60508b494d1df518fccff9a319960405160405180910390a350565b828054600181600116156101000203166002900490600052602060002090601f016020900481019282601f1061044f57805160ff191683800117855561047d565b8280016001018555821561047d579182015b8281111561047c578251825591602001919060010190610461565b5b50905061048a919061048e565b5090565b6104b091905b808211156104ac576000816000905550600101610494565b5090565b905600a165627a7a72305820f714db5dcb0e71b43053001a92452c7552e7066ac2184b8219f08e913181ef380029",
  "source": "pragma solidity ^0.4.23;\r\n\r\ncontract Experiments {\r\n\r\n    struct Experiment {\r\n        address experimenter;\r\n        string nullHypothesis;\r\n    }\r\n\r\n    mapping (address => Experiment) public experiment;\r\n\r\n    event createExperimentEvent(address indexed from, string indexed nullHypothesis);\r\n\r\n    function () public {}\r\n\r\n    function createExperiment(string _nullHypothesis) public{\r\n        //require(!experiment[msg.sender].experimenter);\r\n\r\n        experiment[msg.sender].experimenter = msg.sender;\r\n        experiment[msg.sender].nullHypothesis = _nullHypothesis;\r\n\r\n        emit createExperimentEvent(msg.sender, _nullHypothesis);\r\n    }\r\n}\r\n",
  "sourcePath": "C:\\xampp\\htdocs\\BLOCKCHAIN\\decentralized-neuoscience-research-smart-contracts\\contracts\\Experiments.sol",
  "compiler": {
    "name": "solc",
    "version": "0.4.24+commit.e67f0147.Emscripten.clang"
  },
  "schemaVersion": "2.0.1",
  "updatedAt": "2018-06-25T19:06:06.555Z"
}