{
  "contractName": "Proxies",
  "abi": [
    {
      "constant": true,
      "inputs": [],
      "name": "experimentsContract",
      "outputs": [
        {
          "name": "",
          "type": "address"
        }
      ],
      "payable": false,
      "stateMutability": "view",
      "type": "function"
    },
    {
      "constant": true,
      "inputs": [],
      "name": "version",
      "outputs": [
        {
          "name": "",
          "type": "string"
        }
      ],
      "payable": false,
      "stateMutability": "view",
      "type": "function"
    },
    {
      "constant": true,
      "inputs": [
        {
          "name": "",
          "type": "uint256"
        }
      ],
      "name": "pastSubjectsAddress",
      "outputs": [
        {
          "name": "",
          "type": "address"
        }
      ],
      "payable": false,
      "stateMutability": "view",
      "type": "function"
    },
    {
      "constant": true,
      "inputs": [
        {
          "name": "",
          "type": "uint256"
        }
      ],
      "name": "pastExperimentsAddress",
      "outputs": [
        {
          "name": "",
          "type": "address"
        }
      ],
      "payable": false,
      "stateMutability": "view",
      "type": "function"
    },
    {
      "constant": true,
      "inputs": [],
      "name": "contractOwner",
      "outputs": [
        {
          "name": "",
          "type": "address"
        }
      ],
      "payable": false,
      "stateMutability": "view",
      "type": "function"
    },
    {
      "inputs": [
        {
          "name": "_experimentsContract",
          "type": "address"
        }
      ],
      "payable": false,
      "stateMutability": "nonpayable",
      "type": "constructor"
    },
    {
      "anonymous": false,
      "inputs": [
        {
          "indexed": false,
          "name": "experimentAddr",
          "type": "address"
        },
        {
          "indexed": false,
          "name": "subjectAddr",
          "type": "address"
        }
      ],
      "name": "ContractUpdated",
      "type": "event"
    },
    {
      "constant": false,
      "inputs": [
        {
          "name": "_experimentAddr",
          "type": "address"
        },
        {
          "name": "_subjectAddr",
          "type": "address"
        }
      ],
      "name": "updateContracts",
      "outputs": [],
      "payable": false,
      "stateMutability": "nonpayable",
      "type": "function"
    },
    {
      "constant": false,
      "inputs": [
        {
          "name": "_version",
          "type": "string"
        }
      ],
      "name": "updateVersion",
      "outputs": [],
      "payable": false,
      "stateMutability": "nonpayable",
      "type": "function"
    },
    {
      "constant": false,
      "inputs": [
        {
          "name": "__nullHypothesis",
          "type": "string"
        }
      ],
      "name": "createExperiment",
      "outputs": [],
      "payable": false,
      "stateMutability": "nonpayable",
      "type": "function"
    }
  ],
  "bytecode": "0x60806040526040805190810160405280600581526020017f302e302e310000000000000000000000000000000000000000000000000000008152506000908051906020019061004f929190610107565b5034801561005c57600080fd5b50604051602080610b1c8339810180604052810190808051906020019092919050505033600160006101000a81548173ffffffffffffffffffffffffffffffffffffffff021916908373ffffffffffffffffffffffffffffffffffffffff16021790555080600460006101000a81548173ffffffffffffffffffffffffffffffffffffffff021916908373ffffffffffffffffffffffffffffffffffffffff160217905550506101ac565b828054600181600116156101000203166002900490600052602060002090601f016020900481019282601f1061014857805160ff1916838001178555610176565b82800160010185558215610176579182015b8281111561017557825182559160200191906001019061015a565b5b5090506101839190610187565b5090565b6101a991905b808211156101a557600081600090555060010161018d565b5090565b90565b610961806101bb6000396000f30060806040526004361061008e576000357c0100000000000000000000000000000000000000000000000000000000900463ffffffff16806304d501bd1461009357806354fd4d50146100ea5780637240f9af1461017a578063a684a788146101e3578063b088fc861461024c578063c3f611c1146102b9578063ce606ee014610326578063e692c49f1461037d575b600080fd5b34801561009f57600080fd5b506100a86103e0565b604051808273ffffffffffffffffffffffffffffffffffffffff1673ffffffffffffffffffffffffffffffffffffffff16815260200191505060405180910390f35b3480156100f657600080fd5b506100ff610406565b6040518080602001828103825283818151815260200191508051906020019080838360005b8381101561013f578082015181840152602081019050610124565b50505050905090810190601f16801561016c5780820380516001836020036101000a031916815260200191505b509250505060405180910390f35b34801561018657600080fd5b506101e1600480360381019080803590602001908201803590602001908080601f01602080910402602001604051908101604052809392919081815260200183838082843782019150505050505091929192905050506104a4565b005b3480156101ef57600080fd5b5061024a600480360381019080803590602001908201803590602001908080601f016020809104026020016040519081016040528093929190818152602001838380828437820191505050505050919291929050505061051a565b005b34801561025857600080fd5b506102776004803603810190808035906020019092919050505061062b565b604051808273ffffffffffffffffffffffffffffffffffffffff1673ffffffffffffffffffffffffffffffffffffffff16815260200191505060405180910390f35b3480156102c557600080fd5b506102e460048036038101908080359060200190929190505050610669565b604051808273ffffffffffffffffffffffffffffffffffffffff1673ffffffffffffffffffffffffffffffffffffffff16815260200191505060405180910390f35b34801561033257600080fd5b5061033b6106a7565b604051808273ffffffffffffffffffffffffffffffffffffffff1673ffffffffffffffffffffffffffffffffffffffff16815260200191505060405180910390f35b34801561038957600080fd5b506103de600480360381019080803573ffffffffffffffffffffffffffffffffffffffff169060200190929190803573ffffffffffffffffffffffffffffffffffffffff1690602001909291905050506106cd565b005b600460009054906101000a900473ffffffffffffffffffffffffffffffffffffffff1681565b60008054600181600116156101000203166002900480601f01602080910402602001604051908101604052809291908181526020018280546001816001161561010002031660029004801561049c5780601f106104715761010080835404028352916020019161049c565b820191906000526020600020905b81548152906001019060200180831161047f57829003601f168201915b505050505081565b600160009054906101000a900473ffffffffffffffffffffffffffffffffffffffff1673ffffffffffffffffffffffffffffffffffffffff163373ffffffffffffffffffffffffffffffffffffffff1614151561050057600080fd5b8060009080519060200190610516929190610890565b5050565b600460009054906101000a900473ffffffffffffffffffffffffffffffffffffffff1673ffffffffffffffffffffffffffffffffffffffff1663a684a788826040518263ffffffff167c01000000000000000000000000000000000000000000000000000000000281526004018080602001828103825283818151815260200191508051906020019080838360005b838110156105c45780820151818401526020810190506105a9565b50505050905090810190601f1680156105f15780820380516001836020036101000a031916815260200191505b5092505050600060405180830381600087803b15801561061057600080fd5b505af1158015610624573d6000803e3d6000fd5b5050505050565b60038181548110151561063a57fe5b906000526020600020016000915054906101000a900473ffffffffffffffffffffffffffffffffffffffff1681565b60028181548110151561067857fe5b906000526020600020016000915054906101000a900473ffffffffffffffffffffffffffffffffffffffff1681565b600160009054906101000a900473ffffffffffffffffffffffffffffffffffffffff1681565b600160009054906101000a900473ffffffffffffffffffffffffffffffffffffffff1673ffffffffffffffffffffffffffffffffffffffff163373ffffffffffffffffffffffffffffffffffffffff1614151561072957600080fd5b60028290806001815401808255809150509060018203906000526020600020016000909192909190916101000a81548173ffffffffffffffffffffffffffffffffffffffff021916908373ffffffffffffffffffffffffffffffffffffffff1602179055505060038190806001815401808255809150509060018203906000526020600020016000909192909190916101000a81548173ffffffffffffffffffffffffffffffffffffffff021916908373ffffffffffffffffffffffffffffffffffffffff160217905550507ff6515f2a6d531f16723c1e578303b7d74152bf8c0fa3bee828700a3d4706da8d8282604051808373ffffffffffffffffffffffffffffffffffffffff1673ffffffffffffffffffffffffffffffffffffffff1681526020018273ffffffffffffffffffffffffffffffffffffffff1673ffffffffffffffffffffffffffffffffffffffff1681526020019250505060405180910390a15050565b828054600181600116156101000203166002900490600052602060002090601f016020900481019282601f106108d157805160ff19168380011785556108ff565b828001600101855582156108ff579182015b828111156108fe5782518255916020019190600101906108e3565b5b50905061090c9190610910565b5090565b61093291905b8082111561092e576000816000905550600101610916565b5090565b905600a165627a7a72305820cbee513eb94fc85351b97af57e24c67ad6fece7fe21b8eb8b2c8887f4d5cc5c80029",
  "source": "/*contract Proxies{\r\n\taddress contractOwner = \"\"; // SQ's address for updating contracts\r\n\taddress public experimentsAddress;\r\n\taddress public subjectsAddress;\r\n\taddress[] public pastExperimentsAddress;\r\n\taddress[] public pastSubjectsAddress;\r\n\tevent ContractUpdated(\r\n\t\taddress experimentAddress;\r\n\t\taddress subjectAddress;\r\n\t)\r\n\r\n\tmodifier isOwner(){\r\n\t\trequire(msg.sender == owner);\r\n\t\t_;\r\n\t}\r\n\tfunction updateContracts(address expAddr, address subjAddr){\r\n\t\tif(msg.sender==contractOwner){\r\n\t\t\t// Allow scripts to search prior experiments in case a smart contract update breaks an experiment\r\n\t\t\tpastExperimentsAddress.push(experimentAddress);\r\n\t\t\tpastSubjectsAddress.push(subjectsAddress);\r\n\t\t\t// New scripts will look here first for experiments/subjects\r\n\t\t\texperimentAddress=expAddr;\r\n\t\t\tsubjectsAddress=subjAddr;\r\n\t\t\tContractUpdated(expAddr,subjAddr);\r\n\t\t}\r\n\t}\r\n}*/\r\n\r\npragma solidity ^0.4.23;\r\n\r\nimport \"./Experiments.sol\";\r\n\r\ncontract Proxies {\r\n    string public version = \"0.0.1\";\r\n    address public contractOwner;\r\n    address[] public pastExperimentsAddress;\r\n    address[] public pastSubjectsAddress;\r\n\r\n    Experiments public experimentsContract;\r\n\r\n    event ContractUpdated(address experimentAddr, address subjectAddr);\r\n\r\n    modifier isContractOwner() {\r\n        require(msg.sender == contractOwner);\r\n        _;\r\n    }\r\n\r\n    constructor(Experiments _experimentsContract) public {\r\n        contractOwner = msg.sender;\r\n        experimentsContract = _experimentsContract;\r\n    }\r\n\r\n    function updateContracts(address _experimentAddr, address _subjectAddr) public {\r\n        require(msg.sender == contractOwner);\r\n        pastExperimentsAddress.push(_experimentAddr);\r\n        pastSubjectsAddress.push(_subjectAddr);\r\n        emit ContractUpdated(_experimentAddr,_subjectAddr);\r\n    }\r\n\r\n    function updateVersion(string _version) public isContractOwner {\r\n        //require(msg.sender == contractOwner);\r\n        version = _version;\r\n    }\r\n\r\n    function createExperiment(string __nullHypothesis) public {\r\n        experimentsContract.createExperiment(__nullHypothesis);\r\n    }\r\n\r\n}\r\n",
  "sourcePath": "C:\\xampp\\htdocs\\BLOCKCHAIN\\decentralized-neuoscience-research-smart-contracts\\contracts\\Proxies.sol",
  "compiler": {
    "name": "solc",
    "version": "0.4.24+commit.e67f0147.Emscripten.clang"
  },
  "schemaVersion": "2.0.1",
  "updatedAt": "2018-06-26T15:27:36.132Z"
}