{
  "contractName": "Proxies",
  "abi": [
    {
      "constant": true,
      "inputs": [],
      "name": "experimentSize",
      "outputs": [
        {
          "name": "",
          "type": "uint256"
        }
      ],
      "payable": false,
      "stateMutability": "view",
      "type": "function"
    },
    {
      "constant": true,
      "inputs": [
        {
          "name": "",
          "type": "uint256"
        }
      ],
      "name": "experimentTitles",
      "outputs": [
        {
          "name": "",
          "type": "string"
        }
      ],
      "payable": false,
      "stateMutability": "view",
      "type": "function"
    },
    {
      "constant": true,
      "inputs": [],
      "name": "version",
      "outputs": [
        {
          "name": "",
          "type": "string"
        }
      ],
      "payable": false,
      "stateMutability": "view",
      "type": "function"
    },
    {
      "constant": true,
      "inputs": [
        {
          "name": "",
          "type": "uint256"
        }
      ],
      "name": "experimentDescriptions",
      "outputs": [
        {
          "name": "",
          "type": "string"
        }
      ],
      "payable": false,
      "stateMutability": "view",
      "type": "function"
    },
    {
      "constant": true,
      "inputs": [],
      "name": "owner",
      "outputs": [
        {
          "name": "",
          "type": "address"
        }
      ],
      "payable": false,
      "stateMutability": "view",
      "type": "function"
    },
    {
      "constant": true,
      "inputs": [],
      "name": "lastExperimentIndex",
      "outputs": [
        {
          "name": "",
          "type": "uint256"
        }
      ],
      "payable": false,
      "stateMutability": "view",
      "type": "function"
    },
    {
      "constant": true,
      "inputs": [
        {
          "name": "",
          "type": "uint256"
        }
      ],
      "name": "experiments",
      "outputs": [
        {
          "name": "client",
          "type": "address"
        },
        {
          "name": "prev",
          "type": "uint256"
        },
        {
          "name": "next",
          "type": "uint256"
        }
      ],
      "payable": false,
      "stateMutability": "view",
      "type": "function"
    },
    {
      "constant": true,
      "inputs": [],
      "name": "EXPERIMENT_DAYS",
      "outputs": [
        {
          "name": "",
          "type": "uint256"
        }
      ],
      "payable": false,
      "stateMutability": "view",
      "type": "function"
    },
    {
      "inputs": [],
      "payable": false,
      "stateMutability": "nonpayable",
      "type": "constructor"
    },
    {
      "constant": false,
      "inputs": [
        {
          "name": "_title",
          "type": "string"
        },
        {
          "name": "_description",
          "type": "string"
        }
      ],
      "name": "postExperiment",
      "outputs": [],
      "payable": false,
      "stateMutability": "nonpayable",
      "type": "function"
    }
  ],
  "bytecode": "0x60806040526203f4806005556040805190810160405280600581526020017f302e302e31000000000000000000000000000000000000000000000000000000815250600690805190602001906100569291906100aa565b5034801561006357600080fd5b5033600760006101000a81548173ffffffffffffffffffffffffffffffffffffffff021916908373ffffffffffffffffffffffffffffffffffffffff16021790555061014f565b828054600181600116156101000203166002900490600052602060002090601f016020900481019282601f106100eb57805160ff1916838001178555610119565b82800160010185558215610119579182015b828111156101185782518255916020019190600101906100fd565b5b509050610126919061012a565b5090565b61014c91905b80821115610148576000816000905550600101610130565b5090565b90565b6108e08061015e6000396000f300608060405260043610610099576000357c0100000000000000000000000000000000000000000000000000000000900463ffffffff16806332d465d91461009e57806344a837e1146100c957806354fd4d501461016f5780638209519f146101ff578063880d9add146102a55780638da5cb5b14610354578063bc0b6645146103ab578063eb4706b5146103d6578063fe01e90514610451575b600080fd5b3480156100aa57600080fd5b506100b361047c565b6040518082815260200191505060405180910390f35b3480156100d557600080fd5b506100f460048036038101908080359060200190929190505050610482565b6040518080602001828103825283818151815260200191508051906020019080838360005b83811015610134578082015181840152602081019050610119565b50505050905090810190601f1680156101615780820380516001836020036101000a031916815260200191505b509250505060405180910390f35b34801561017b57600080fd5b50610184610532565b6040518080602001828103825283818151815260200191508051906020019080838360005b838110156101c45780820151818401526020810190506101a9565b50505050905090810190601f1680156101f15780820380516001836020036101000a031916815260200191505b509250505060405180910390f35b34801561020b57600080fd5b5061022a600480360381019080803590602001909291905050506105d0565b6040518080602001828103825283818151815260200191508051906020019080838360005b8381101561026a57808201518184015260208101905061024f565b50505050905090810190601f1680156102975780820380516001836020036101000a031916815260200191505b509250505060405180910390f35b3480156102b157600080fd5b50610352600480360381019080803590602001908201803590602001908080601f0160208091040260200160405190810160405280939291908181526020018383808284378201915050505050509192919290803590602001908201803590602001908080601f0160208091040260200160405190810160405280939291908181526020018383808284378201915050505050509192919290505050610680565b005b34801561036057600080fd5b50610369610793565b604051808273ffffffffffffffffffffffffffffffffffffffff1673ffffffffffffffffffffffffffffffffffffffff16815260200191505060405180910390f35b3480156103b757600080fd5b506103c06107b9565b6040518082815260200191505060405180910390f35b3480156103e257600080fd5b50610401600480360381019080803590602001909291905050506107bf565b604051808473ffffffffffffffffffffffffffffffffffffffff1673ffffffffffffffffffffffffffffffffffffffff168152602001838152602001828152602001935050505060405180910390f35b34801561045d57600080fd5b50610466610809565b6040518082815260200191505060405180910390f35b60035481565b60006020528060005260406000206000915090508054600181600116156101000203166002900480601f01602080910402602001604051908101604052809291908181526020018280546001816001161561010002031660029004801561052a5780601f106104ff5761010080835404028352916020019161052a565b820191906000526020600020905b81548152906001019060200180831161050d57829003601f168201915b505050505081565b60068054600181600116156101000203166002900480601f0160208091040260200160405190810160405280929190818152602001828054600181600116156101000203166002900480156105c85780601f1061059d576101008083540402835291602001916105c8565b820191906000526020600020905b8154815290600101906020018083116105ab57829003601f168201915b505050505081565b60016020528060005260406000206000915090508054600181600116156101000203166002900480601f0160208091040260200160405190810160405280929190818152602001828054600181600116156101000203166002900480156106785780601f1061064d57610100808354040283529160200191610678565b820191906000526020600020905b81548152906001019060200180831161065b57829003601f168201915b505050505081565b60036000815480929190600101919050555081600080600354815260200190815260200160002090805190602001906106ba92919061080f565b508060016000600354815260200190815260200160002090805190602001906106e492919061080f565b503360026000600354815260200190815260200160002060000160006101000a81548173ffffffffffffffffffffffffffffffffffffffff021916908373ffffffffffffffffffffffffffffffffffffffff160217905550600454600260006003548152602001908152602001600020600101819055506000600454111561078657600354600260006003548152602001908152602001600020600201819055505b6003546004819055505050565b600760009054906101000a900473ffffffffffffffffffffffffffffffffffffffff1681565b60045481565b60026020528060005260406000206000915090508060000160009054906101000a900473ffffffffffffffffffffffffffffffffffffffff16908060010154908060020154905083565b60055481565b828054600181600116156101000203166002900490600052602060002090601f016020900481019282601f1061085057805160ff191683800117855561087e565b8280016001018555821561087e579182015b8281111561087d578251825591602001919060010190610862565b5b50905061088b919061088f565b5090565b6108b191905b808211156108ad576000816000905550600101610895565b5090565b905600a165627a7a7230582037fcbcf8016e24b4f1d1bd33897ac7cd180d992b6aef54661d176e46d8306ff50029",
  "source": "pragma solidity ^0.4.23;\r\n\r\n/* TODO: decentralized neuroscience */\r\n\r\n\r\ncontract Proxies {\r\n\r\n    enum rewardTypes {OBL,ETH}\r\n\r\n    struct Experiment {\r\n        address client;\r\n        uint prev;\r\n        uint next;\r\n    }\r\n    \r\n    mapping(uint => string) public experimentTitles;\r\n    mapping(uint => string) public experimentDescriptions;\r\n    mapping(uint => Experiment) public experiments;\r\n\r\n    uint public experimentSize;\r\n    uint public lastExperimentIndex;\r\n\r\n    uint public EXPERIMENT_DAYS = 3 days;\r\n\r\n    string public version = \"0.0.1\";\r\n    address public owner;\r\n    \r\n\r\n    modifier onlyOwner() {\r\n        require(msg.sender == owner);\r\n        _;\r\n    }\r\n\r\n    constructor() public {\r\n        owner = msg.sender;\r\n    }\r\n\r\n    function postExperiment(string _title, string _description) public {\r\n        experimentSize++;\r\n\r\n        experimentTitles[experimentSize] = _title;\r\n        experimentDescriptions[experimentSize] = _description;\r\n\r\n        experiments[experimentSize].client = msg.sender; \r\n\r\n\r\n        //linked list connecting\r\n        experiments[experimentSize].prev = lastExperimentIndex;\r\n        if(lastExperimentIndex > 0) {\r\n            experiments[experimentSize].next = experimentSize;\r\n        }\r\n        lastExperimentIndex = experimentSize;\r\n\r\n    }\r\n\r\n}\r\n",
  "sourcePath": "C:\\xampp\\htdocs\\BLOCKCHAIN\\decentralized-neuoscience-research-smart-contracts\\contracts\\Proxies.sol",
  "compiler": {
    "name": "solc",
    "version": "0.4.24+commit.e67f0147.Emscripten.clang"
  },
  "schemaVersion": "2.0.1",
  "updatedAt": "2018-07-01T13:11:23.981Z"
}